:020000040800F2
:1000000000500020690900088D08000893080008C6
:10001000990800089F080008A508000800000000D3
:10002000000000000000000000000000AB08000815
:10003000B708000800000000C3080008CF08000847
:10004000B1090008B1090008B1090008B1090008A8
:10005000B1090008B1090008B1090008B109000898
:10006000B1090008B1090008B1090008DD0800085D
:10007000B1090008B1090008B1090008B109000878
:10008000B1090008B1090008B1090008B109000868
:10009000B1090008B1090008B1090008B109000858
:1000A000B1090008B1090008B1090008B109000848
:1000B000B1090008B1090008B1090008B109000838
:1000C000B1090008B1090008B1090008B109000828
:1000D000B1090008B1090008B1090008B109000818
:1000E000B1090008B1090008B109000800000000CA
:1000F0000000000000000000000000000000000000
:0C01000000000000000000005FF808F1A3
:10010C0010B5054C237833B9044B13B10448AFF345
:10011C0000800123237010BD70000020000000003F
:10012C006838000808B5034B1BB103490348AFF30B
:10013C00008008BD00000000740000206838000832
:10014C0080B582B000AF00F02FFC00F0E9F800F0B1
:10015C0019FA00F0F9F900F03FF900F07BF900F022
:10016C00C9F95C4802F0B2FA4FF400715A4801F038
:10017C0045FD0346002B09D1584B1B7883F0010336
:10018C00DBB2002B02D0554B01221A704FF40071D8
:10019C00514801F033FD0346012B21D14F4B1B7805
:1001AC00002B1DD04D4B00221A704D494D4802F0CA
:1001BC00DBFE03469AB2C8234A494B4802F037FD8E
:1001CC004FF48071444801F048FD424B1B685B6A58
:1001DC00464A136042F234124549464800F01EFD6F
:1001EC00454B1B78002BBFD044493E4802F0BCFE67
:1001FC0003469AB2C8233B493B4802F018FD002342
:10020C007B6023E03A4A7B6832F813301A463C494B
:10021C003C4802F0A9FE03469AB2C8233949324839
:10022C0002F005FD00233B600AE002223B6892FBD2
:10023C00F3F23B68134402333B603B6801333B6091
:10024C003B68632BF1DD7B6801337B607B6842F29A
:10025C0033129342D6DD284B00221A702A4B1A68AF
:10026C00224B1B68D31A1A46284B1A60274B1B6863
:10027C00002B06DA254B1B6803F57F43FF33234A1B
:10028C001360C82301222249174802F0D0FC1F4BEF
:10029C001B681A461F49204802F066FE03469AB2B4
:1002AC00C8231D49104802F0C2FC184B1B681A46A3
:1002BC001A49194802F058FE03469AB2C823164947
:1002CC00094802F0B4FCC82301221149064802F087
:1002DC00AEFC49E7B0430020000C0140F442002082
:1002EC008038000800430020F843002030430020F1
:1002FC008C0000203C430020F54200209038000880
:10030C00A0380008F8420020344300203843002075
:10031C00A8380008AC38000810430020C438000886
:10032C0080B594B000AF07F12803282200211846AD
:10033C0002F012FE07F1140300221A605A609A6050
:10034C00DA601A613B1D00221A605A609A60DA600A
:10035C000123BB624FF48033FB6200233B63012318
:10036C00BB6302237B644FF48033BB644FF4A01354
:10037C00FB6407F12803184601F088FC0346002BA8
:10038C0001D000F081F90F237B610223BB610023B4
:10039C00FB614FF480633B6200237B6207F1140323
:1003AC000221184601F0F4FE0346002B01D000F0A8
:1003BC006BF902237B604FF48043FB603B1D1846B6
:1003CC0002F07EF80346002B01D000F05DF900BF6F
:1003DC005037BD4680BD000080B584B000AF3B1DDA
:1003EC0000221A605A609A60184B194A1A60174B0F
:1003FC0000229A60154B01221A73144B00221A75B5
:10040C00124B4FF46022DA61104B00225A600F4BF2
:10041C0001221A610D4800F029FB0346002B01D084
:10042C0000F032F900237B600123BB600023FB60EA
:10043C003B1D1946054800F02DFD0346002B01D04D
:10044C0000F022F900BF1037BD4680BD3C430020B0
:10045C000024014080B586B000AF07F108030022EC
:10046C001A605A609A60DA603B4600221A605A6041
:10047C001E4B1F4A1A601D4B64225A601B4B0022F4
:10048C009A601A4B4FF6FF72DA60184B00221A6111
:10049C00164B00225A61154B00229A61134802F048
:1004AC00C5F80346002B01D000F0EEF84FF4805352
:1004BC00BB6007F1080319460C4802F051F90346DA
:1004CC00002B01D000F0E0F800233B6000237B60A0
:1004DC003B461946054802F0FFFA0346002B01D0B3
:1004EC0000F0D2F800BF1837BD4680BDB0430020E5
:1004FC00002C014080B500AF114B124A1A60104B12
:10050C004FF4E1325A600E4B00229A600C4B0022E1
:10051C00DA600B4B00221A61094B0C225A61084B12
:10052C0000229A61064B0022DA61054802F032FB88
:10053C000346002B01D000F0A7F800BF80BD00BF20
:10054C00F84300200038014080B582B000AF0C4B5E
:10055C005B690B4A43F001035361094B5B6903F080
:10056C0001037B607B68002200210B2000F063FFFD
:10057C000B2000F07CFF00BF0837BD4680BD00BFDC
:10058C000010024080B588B000AF07F110030022C4
:10059C001A605A609A60DA60244B9B69234A43F0D4
:1005AC0020039361214B9B6903F02003FB60FB68E4
:1005BC001E4B9B691D4A43F0040393611B4B9B69C3
:1005CC0003F00403BB60BB68184B9B69174A43F0EC
:1005DC0008039361154B9B6903F008037B607B68F0
:1005EC0000224FF48071124801F01FFB4FF480730E
:1005FC003B6101237B610023BB610223FB6107F19B
:10060C00100319460A4801F075F94FF400733B6169
:10061C0000237B610123BB6107F1100319460448D9
:10062C0001F068F900BF2037BD4680BD00100240C4
:10063C00000C014080B582B000AF78600C4B1B6899
:10064C005B6A0C4A13600C490C4802F08DFC0346A3
:10065C009AB2C82309490A4802F0E9FA786800F00E
:10066C00BBFB084B01221A7000BF0837BD4680BD8A
:10067C00B043002034430020C83800080043002059
:10068C00F8430020F542002080B400AF72B600BFE2
:10069C00FEE7000080B483B000AF0E4B9B690D4A9F
:1006AC0043F0010393610B4B9B6903F001037B60E7
:1006BC007B68084BDB69074A43F08053D361054BD9
:1006CC00DB6903F080533B603B6800BF0C37BD46D1
:1006DC0080BC70470010024080B588B000AF7860D5
:1006EC0007F1100300221A605A609A60DA607B6886
:1006FC001B68294A93424AD1284B9B69274A43F4E9
:10070C0000739361254B9B6903F40073FB60FB68DA
:10071C00224B9B69214A43F0040393611F4B9B6955
:10072C0003F00403BB60BB6801233B6103237B61C3
:10073C0007F1100319461A4801F0DCF8194B1A4A54
:10074C001A60184B00225A60164B00229A60154B07
:10075C008022DA60134B4FF480721A61114B4FF404
:10076C0080625A610F4B00229A610E4B4FF400527B
:10077C00DA610C4800F096FE0346002B01D0FFF71F
:10078C0083FF7B68074A1A62064A7B68536200BF84
:10079C002037BD4680BD00BF002401400010024040
:1007AC00000801406C4300200800024080B485B072
:1007BC0000AF78607B681B68094A93420BD1094BE8
:1007CC009B69084A43F400639361064B9B6903F4ED
:1007DC000063FB60FB6800BF1437BD4680BC7047EC
:1007EC00002C01400010024080B588B000AF78604A
:1007FC0007F1100300221A605A609A60DA607B6875
:10080C001B681C4A934231D11B4B9B691A4A43F417
:10081C0080439361184B9B6903F48043FB60FB6836
:10082C00154B9B69144A43F004039361124B9B696B
:10083C0003F00403BB60BB684FF400733B610223FD
:10084C007B610323FB6107F1100319460B4801F090
:10085C0051F84FF480633B6100237B610023BB6143
:10086C0007F110031946054801F044F800BF203782
:10087C00BD4680BD00380140001002400008014018
:10088C0080B400AFFEE780B400AFFEE780B400AFE9
:10089C00FEE780B400AFFEE780B400AFFEE780B4A3
:1008AC0000AF00BFBD4680BC704780B400AF00BF36
:1008BC00BD4680BC704780B400AF00BFBD4680BC55
:1008CC00704780B500AF00F0B5F800BF80BD0000E8
:1008DC0080B500AF024800F0D9FE00BF80BD00BF5C
:1008EC006C43002080B586B000AF7860144A154B7D
:1008FC00D31A7B617B693B61134B1B68002B02D1C4
:10090C00114B124A1A60104B1A687B6813443A69EF
:10091C009A4207D202F0F6FA03460C221A604FF004
:10092C00FF3309E0084B1B68FB60074B1A687B68B8
:10093C001344054A1360FB6818461837BD4680BD42
:10094C0000500020000400003C44002058440020CB
:10095C0080B400AF00BFBD4680BC70470C480D4949
:10096C000D4A002302E0D458C4500433C4188C42FE
:10097C00F9D30A4A0A4C002301E013600432A24264
:10098C00FBD3FFF7E5FF02F0C3FAFFF7D9FB704783
:10099C0000000020700000203C390008700000208E
:1009AC0054440020FEE7000080B500AF084B1B68E4
:1009BC00074A43F010031360032000F031FD0F20B1
:1009CC0000F008F8FFF766FE0023184680BD00BF54
:1009DC000020024080B582B000AF7860124B1A68DC
:1009EC00124B1B7819464FF47A73B3FBF1F3B2FB3D
:1009FC00F3F3184600F049FD0346002B01D0012308
:100A0C000EE07B680F2B0AD8002279684FF0FF307C
:100A1C0000F011FD064A7B681360002300E00123FF
:100A2C0018460837BD4680BD000000200800002095
:100A3C000400002080B400AF054B1B781A46054B10
:100A4C001B681344034A136000BFBD4680BC70474B
:100A5C00080000204044002080B400AF024B1B680B
:100A6C001846BD4680BC70474044002080B586B017
:100A7C0000AF78600023FB7500233B610023BB6053
:100A8C000023FB607B68002B01D10123BEE07B6857
:100A9C009B68002B7B689B6A002B09D17B6800222A
:100AAC00DA627B68002283F824207868FFF714FE52
:100ABC00786800F041FB0346FB757B689B6A03F08A
:100ACC001003002B40F09980FB7D002B40F09580AB
:100ADC007B689B6A23F4885323F0020343F00202E1
:100AEC007B689A627B685A687B68DB691A437B680F
:100AFC001B7B5B001343BA681343BB607B689B682A
:100B0C00B3F5807F03D07B689B68012B02D14FF437
:100B1C00807300E000233A6913433B617B681B7DC3
:100B2C00012B19D17B681B7B002B09D17B689B693E
:100B3C00013B5A033B69134343F400633B610BE0F5
:100B4C007B689B6A43F020027B689A627B68DB6A55
:100B5C0043F001027B68DA627B681B685B6823F4F4
:100B6C0069417B681B683A690A435A607B681B6859
:100B7C009A68284B13407A681268B9680B439360E3
:100B8C007B689B68B3F5807F03D07B689B68012BE7
:100B9C0004D17B681B69013B1B05FB607B681B68F0
:100BAC00DB6A23F470017B681B68FA680A43DA621B
:100BBC007B681B689A68184B1340BA689A420BD131
:100BCC007B680022DA627B689B6A23F0030343F0A4
:100BDC0001027B689A6218E07B689B6A23F012031F
:100BEC0043F010027B689A627B68DB6A43F0010277
:100BFC007B68DA620123FB7507E07B689B6A43F034
:100C0C0010027B689A620123FB75FB7D184618372E
:100C1C00BD4680BDFDF7E1FFFE0E1FFF80B586B01F
:100C2C0000AFF860B9607A600023FB75FB681B6845
:100C3C00644A934204D0FB681B68634A934206D112
:100C4C00604B5B6803F47023002B40F0B380FB68AF
:100C5C0093F82430012B01D10223AEE0FB68012272
:100C6C0083F82420F86800F00DFA0346FB75FB7D31
:100C7C00002B40F09A80FB689B6A23F4706323F08E
:100C8C00010343F48072FB689A62FB681B684E4A4E
:100C9C00934205D14B4B5B6803F47023002B15D1A9
:100CAC00FB689B6A23F48012FB689A62FB681B68E2
:100CBC005B6803F48063002B26D0FB689B6A23F4EB
:100CCC00405343F48052FB689A621DE0FB689B6AB8
:100CDC0043F48012FB689A62FB681B68394A9342A2
:100CEC0004D0FB681B68384A93420DD1354B5B68C6
:100CFC0003F48063002B07D0FB689B6A23F44053FA
:100D0C0043F48052FB689A62FB689B6A03F480533D
:100D1C00002B06D0FB68DB6A23F00602FB68DA6264
:100D2C0002E0FB680022DA62FB68002283F82420D0
:100D3C00FB681B6A254A9A62FB681B6A244ADA62C2
:100D4C00FB681B6A234A1A63FB681B686FF002027C
:100D5C001A60FB681B689A68FB681B6842F4807217
:100D6C009A60FB68186AFB681B684C331946BA68B2
:100D7C007B6800F0F1FBFB681B689B6803F4602345
:100D8C00B3F5602F08D1FB681B689A68FB681B6879
:100D9C0042F4A0029A600FE0FB681B689A68FB683B
:100DAC001B6842F480129A6006E0FB68002283F80C
:100DBC00242001E00123FB75FB7D18461837BD4646
:100DCC0080BD00BF0024014000280140C71100086D
:100DDC00431200085F12000880B584B000AF786041
:100DEC000023FB737B6893F82430012B01D1022381
:100DFC0039E07B68012283F82420786800F09CF9A4
:100E0C000346FB73FB7B002B28D17B681B689A681D
:100E1C007B681B6822F480729A607B681B6A93F86B
:100E2C002130022B1AD17B681B6A184600F0F3FBA9
:100E3C000346FB73FB7B002B0AD17B689B6A23F474
:100E4C00885323F0010343F001027B689A6205E0AA
:100E5C007B689B6A43F040027B689A627B68002245
:100E6C0083F82420FB7B18461037BD4680BD80B428
:100E7C0083B000AF786000BF0C37BD4680BC7047B4
:100E8C0080B483B000AF786000BF0C37BD4680BC27
:100E9C007047000080B485B000AF786039600023E3
:100EAC00FB730023BB607B6893F82430012B01D1CA
:100EBC000223DCE07B68012283F824203B685B681A
:100ECC00062B1CD87B681B68596B3B685A68134609
:100EDC009B001344053B1F2202FA03F3DB4319402A
:100EEC003B6818683B685A6813469B001344053BE3
:100EFC0000FA03F27B681B680A435A633CE03B68C8
:100F0C005B680C2B1CD87B681B68196B3B685A6898
:100F1C0013469B001344233B1F2202FA03F3DB43CB
:100F2C0019403B6818683B685A6813469B00134489
:100F3C00233B00FA03F27B681B680A431A631BE02D
:100F4C007B681B68D96A3B685A6813469B0013443C
:100F5C00413B1F2202FA03F3DB4319403B6818683C
:100F6C003B685A6813469B001344413B00FA03F25A
:100F7C007B681B680A43DA623B681B68092B1CD927
:100F8C007B681B68D9683B681A6813465B0013447E
:100F9C001E3B072202FA03F3DB4319403B689868B7
:100FAC003B681A6813465B0013441E3B00FA03F2BD
:100FBC007B681B680A43DA6019E07B681B68196957
:100FCC003B681A6813465B001344072202FA03F3CA
:100FDC00DB4319403B6898683B681A6813465B0012
:100FEC00134400FA03F27B681B680A431A613B68DE
:100FFC001B68102B03D03B681B68112B32D17B680C
:10100C001B681D4A934225D17B681B689B6803F4BF
:10101C000003002B26D17B681B689A687B681B68D1
:10102C0042F400029A603B681B68102B1AD1134BD8
:10103C001B68134AA2FB03239A0C13469B00134410
:10104C005B00BB6002E0BB68013BBB60BB68002B74
:10105C00F9D107E07B689B6A43F020027B689A62B7
:10106C000123FB737B68002283F82420FB7B18464A
:10107C001437BD4680BC704700240140000000209E
:10108C0083DE1B4380B584B000AF78600023FB6027
:10109C000023BB607B681B689B6803F00103012B7A
:1010AC0040D07B681B689A687B681B6842F0010221
:1010BC009A601F4B1B681F4AA2FB03239B0CBB604F
:1010CC0002E0BB68013BBB60BB68002BF9D1FFF7AA
:1010DC00C3FCF8601FE0FFF7BFFC0246FB68D31AA5
:1010EC00022B18D97B681B689B6803F00103012B4A
:1010FC0011D07B689B6A43F010027B689A627B6814
:10110C00DB6A43F001027B68DA627B68002283F8B9
:10111C002420012307E07B681B689B6803F0010314
:10112C00012BD8D1002318461037BD4680BD00BF17
:10113C000000002083DE1B4380B584B000AF7860D4
:10114C000023FB607B681B689B6803F00103012B89
:10115C002ED17B681B689A687B681B6822F00102A1
:10116C009A60FFF779FCF8601BE0FFF775FC02460C
:10117C00FB68D31A022B14D97B681B689B6803F09D
:10118C000103012B0DD17B689B6A43F010027B6835
:10119C009A627B68DB6A43F001027B68DA620123A6
:1011AC0007E07B681B689B6803F00103012BDCD014
:1011BC00002318461037BD4680BD80B584B000AF03
:1011CC0078607B685B6AFB60FB689B6A03F050038A
:1011DC00002B27D1FB689B6A43F40072FB689A6270
:1011EC00FB681B689B6803F46023B3F5602F15D173
:1011FC00FB681B7B002B11D1FB689B6A23F480726C
:10120C00FB689A62FB689B6A03F48053002B05D140
:10121C00FB689B6A43F00102FB689A62F868FFF76F
:10122C0009FA04E0FB681B6A1B6B7868984700BFDF
:10123C001037BD4680BD80B584B000AF78607B6848
:10124C005B6AFB60F868FFF712FE00BF1037BD4603
:10125C0080BD80B584B000AF78607B685B6AFB6052
:10126C00FB689B6A43F04002FB689A62FB68DB6A8E
:10127C0043F00402FB68DA62F868FFF701FE00BF76
:10128C001037BD4680BD000080B485B000AF7860DB
:10129C007B6803F00703FB600C4BDB68BB60BA6830
:1012AC004FF6FF031340BB60FB681A02BB68134385
:1012BC0043F0BF6343F40033BB60044ABB68D360A4
:1012CC0000BF1437BD4680BC704700BF00ED00E086
:1012DC0080B400AF044BDB681B0A03F0070318460D
:1012EC00BD4680BC704700BF00ED00E080B483B009
:1012FC0000AF0346FB7197F90730002B0BDBFB7932
:10130C0003F01F02064997F907305B09012000FA28
:10131C0002F241F8232000BF0C37BD4680BC704759
:10132C0000E100E080B483B000AF03463960FB718C
:10133C0097F90730002B0ADB3B68DAB20C4997F9B6
:10134C0007301201D2B20B4483F800230AE03B6849
:10135C00DAB20849FB7903F00F03043B1201D2B255
:10136C000B441A7600BF0C37BD4680BC704700BFDB
:10137C0000E100E000ED00E080B489B000AFF8605F
:10138C00B9607A60FB6803F00703FB61FB69C3F18A
:10139C000703042B28BF0423BB61FB690433062B12
:1013AC0002D9FB69033B00E000237B614FF0FF3265
:1013BC00BB6902FA03F3DA43BB681A407B699A40B3
:1013CC004FF0FF317B6901FA03F3D9437B680B4083
:1013DC00134318462437BD4680BC704780B582B095
:1013EC0000AF78607B68013BB3F1807F01D30123B0
:1013FC000FE00A4A7B68013B53600F214FF0FF302E
:10140C00FFF790FF054B00229A60044B07221A60ED
:10141C00002318460837BD4680BD00BF10E000E031
:10142C0080B582B000AF78607868FFF72DFF00BF01
:10143C000837BD4680BD80B586B000AF0346B960A5
:10144C007A60FB7300237B61FFF742FF78617A6857
:10145C00B9687869FFF790FF024697F90F3011468B
:10146C001846FFF75FFF00BF1837BD4680BD80B53B
:10147C0082B000AF0346FB7197F907301846FFF7AF
:10148C0035FF00BF0837BD4680BD80B582B000AFC8
:10149C0078607868FFF7A2FF034618460837BD4608
:1014AC0080BD000080B485B000AF78600023FB6085
:1014BC007B68002B01D1012343E07B681B681A4633
:1014CC00224B1344224AA2FB03231B099A007B687C
:1014DC001A647B681F4ADA637B68022283F8212036
:1014EC007B681B681B68FB60FB6823F47F5323F04D
:1014FC003003FB607B685A687B689B681A437B6887
:10150C00DB681A437B681B691A437B685B691A4367
:10151C007B689B691A437B68DB691343FA68134346
:10152C00FB607B681B68FA681A607B6800229A6310
:10153C007B68012283F821207B68002283F820201D
:10154C00002318461437BD4680BC7047F8FFFDBF1A
:10155C00CDCCCCCC0000024080B586B000AFF8609A
:10156C00B9607A603B600023FB75FB6893F8203010
:10157C00012B01D102234AE0FB68012283F82020D1
:10158C00FB6893F82130012B3AD1FB68022283F8D7
:10159C002120FB6800229A63FB681B681A68FB68B1
:1015AC001B6822F001021A603B687A68B968F86817
:1015BC0000F072F9FB68DB6A002B08D0FB681B6833
:1015CC001A68FB681B6842F00E021A600FE0FB6899
:1015DC001B681A68FB681B6822F004021A60FB681F
:1015EC001B681A68FB681B6842F00A021A60FB68E9
:1015FC001B681A68FB681B6842F001021A6005E060
:10160C00FB68002283F820200223FB75FB7D184623
:10161C001837BD4680BD80B485B000AF786000231C
:10162C00FB737B6893F82130022B08D07B68042273
:10163C009A637B68002283F82020012320E07B68DA
:10164C001B681A687B681B6822F00E021A607B68A4
:10165C001B681A687B681B6822F001021A607B68A1
:10166C001A6C7B68DB6B012101FA02F25A607B6811
:10167C00012283F821207B68002283F82020FB7B49
:10168C0018461437BD4680BC7047000080B584B046
:10169C0000AF78607B68DB6B1B68FB607B681B684A
:1016AC001B68BB607B681B6C04229A40FB68134070
:1016BC00002B4FD0BB6803F00403002B4AD07B688F
:1016CC001B681B6803F02003002B07D17B681B6889
:1016DC001A687B681B6822F004021A607B681B681E
:1016EC00664A934229D07B681B68654A934222D094
:1016FC007B681B68634A93421AD07B681B68624AFA
:10170C00934212D07B681B68604A93420AD07B6874
:10171C001B685F4A934202D14FF480030EE04FF0F6
:10172C0080630BE04FF4802308E04FF4804305E026
:10173C004FF4806302E0402300E00423554A5360D9
:10174C007B68DB6A002B00F094807B68DB6A78682E
:10175C0098478EE07B681B6C02229A40FB68134012
:10176C00002B56D0BB6803F00203002B51D07B68D2
:10177C001B681B6803F02003002B0BD17B681B68D4
:10178C001A687B681B6822F00A021A607B680122C7
:10179C0083F821207B681B68384A934229D07B68E8
:1017AC001B68374A934222D07B681B68354A9342A8
:1017BC001AD07B681B68344A934212D07B681B6832
:1017CC00324A93420AD07B681B68314A934202D159
:1017DC004FF400130EE04FF000730BE04FF40033A6
:1017EC0008E04FF4005305E04FF4007302E02023AF
:1017FC0000E00223274A53607B68002283F82020F4
:10180C007B689B6A002B34D07B689B6A786898470E
:10181C002FE07B681B6C08229A40FB681340002B5E
:10182C0028D0BB6803F00803002B23D07B681B680F
:10183C001A687B681B6822F00E021A607B681A6CAF
:10184C007B68DB6B012101FA02F25A607B68012292
:10185C009A637B68012283F821207B68002283F83D
:10186C0020207B681B6B002B04D07B681B6B78687B
:10187C00984700BF00BF1037BD4680BD080002402E
:10188C001C0002403000024044000240580002405C
:10189C006C0002400000024080B485B000AFF860DC
:1018AC00B9607A603B60FB681A6CFB68DB6B0121EA
:1018BC0001FA02F25A60FB681B683A685A60FB68CE
:1018CC005B68102B08D1FB681B687A689A60FB6810
:1018DC001B68BA68DA6007E0FB681B68BA689A6034
:1018EC00FB681B687A68DA6000BF1437BD4680BCA1
:1018FC007047000080B48BB000AF78603960002373
:10190C007B6200233B6269E101227B6A02FA03F3EA
:10191C00FB613B681B68FA691340BB61BA69FB69E0
:10192C009A4240F058813B685B689A4A93425ED079
:10193C00984A934275D8984A934258D0964A934203
:10194C006FD8964A934252D0944A934269D8944A9B
:10195C0093424CD0924A934263D8924A934246D0D7
:10196C00904A93425DD8122B2AD8122B59D801A237
:10197C0052F823F0FB190008D5190008E7190008E4
:10198C00291A00082F1A00082F1A00082F1A00080D
:10199C002F1A00082F1A00082F1A00082F1A0008F7
:1019AC002F1A00082F1A00082F1A00082F1A0008E7
:1019BC002F1A00082F1A0008DD190008F119000869
:1019CC00794A934213D02CE03B68DB683B6229E0F8
:1019DC003B68DB6804333B6224E03B68DB6808331C
:1019EC003B621FE03B68DB680C333B621AE03B68F0
:1019FC009B68002B02D104233B6213E03B689B687D
:101A0C00012B05D108233B627B68FA691A6109E056
:101A1C0008233B627B68FA695A6103E000233B624E
:101A2C0000E000BFBB69FF2B01D87B6801E07B683D
:101A3C0004337B61BB69FF2B02D87B6A9B0002E0FD
:101A4C007B6A083B9B003B617B691A680F213B69F1
:101A5C0001FA03F3DB431A40396A3B6901FA03F3D9
:101A6C001A437B691A603B685B6803F08053002B58
:101A7C0000F0B1804D4B9B694C4A43F001039361DC
:101A8C004A4B9B6903F00103BB60BB68484A7B6A05
:101A9C009B08023352F82330FB607B6A03F003038C
:101AAC009B000F2202FA03F3DB43FA681340FB603E
:101ABC007B68404A934213D07B683F4A93420DD0D7
:101ACC007B683E4A934207D07B683D4A934201D1E2
:101ADC00032306E0042304E0022302E0012300E0D8
:101AEC0000237A6A02F0030292009340FA681343CF
:101AFC00FB602F497B6A9B080233FA6841F823206C
:101B0C003B685B6803F48033002B06D02D4B1A68BE
:101B1C002C49BB6913430B6006E02A4B1A68BB695E
:101B2C00DB43284913400B603B685B6803F40033CC
:101B3C00002B06D0234B5A682249BB6913434B60D8
:101B4C0006E0204B5A68BB69DB431E4913404B60CF
:101B5C003B685B6803F48013002B06D0194B9A6822
:101B6C001849BB6913438B6006E0164B9A68BB6936
:101B7C00DB43144913408B603B685B6803F4001330
:101B8C00002B21D00F4BDA680E49BB691343CB6095
:101B9C0021E000BF000032100000311000002210C4
:101BAC000000211000001210000011100010024063
:101BBC000000014000080140000C014000100140F1
:101BCC0000140140000401400B4BDA68BB69DB4395
:101BDC0009491340CB607B6A01337B623B681A680E
:101BEC007B6A22FA03F3002B7FF48EAE00BF00BF9A
:101BFC002C37BD4680BC70470004014080B485B0D2
:101C0C0000AF78600B467B807B689A687B881340BA
:101C1C00002B02D00123FB7301E00023FB73FB7B41
:101C2C0018461437BD4680BC704780B483B000AFF3
:101C3C0078600B467B8013467B707B78002B03D03F
:101C4C007A887B681A6103E07B881A047B681A61C6
:101C5C0000BF0C37BD4680BC704780B485B000AF68
:101C6C0078600B467B807B68DB68FB607A88FB685E
:101C7C0013401A04FB68D9437B880B401A437B68DA
:101C8C001A6100BF1437BD4680BC704780B586B062
:101C9C0000AF78607B68002B01D1012372E27B6876
:101CAC001B6803F00103002B00F08780924B5B68EC
:101CBC0003F00C03042B0CD08F4B5B6803F00C036C
:101CCC00082B12D18C4B5B6803F48033B3F5803F47
:101CDC000BD1894B1B6803F40033002B6CD07B6851
:101CEC005B68002B68D101234CE27B685B68B3F521
:101CFC00803F06D1804B1B687F4A43F480331360CE
:101D0C002EE07B685B68002B0CD17B4B1B687A4AFE
:101D1C0023F480331360784B1B68774A23F48023B9
:101D2C0013601DE07B685B68B3F5A02F0CD1724B80
:101D3C001B68714A43F4802313606F4B1B686E4A17
:101D4C0043F4803313600BE06B4B1B686A4A23F43B
:101D5C0080331360684B1B68674A23F4802313603D
:101D6C007B685B68002B13D0FEF776FE386108E0C9
:101D7C00FEF772FE02463B69D31A642B01D903238A
:101D8C0000E25D4B1B6803F40033002BF0D014E031
:101D9C00FEF762FE386108E0FEF75EFE02463B6924
:101DAC00D31A642B01D90323ECE1534B1B6803F4C6
:101DBC000033002BF0D100E000BF7B681B6803F000
:101DCC000203002B63D04C4B5B6803F00C03002B1D
:101DDC000BD0494B5B6803F00C03082B1CD1464B12
:101DEC005B6803F48033002B16D1434B1B6803F064
:101DFC000203002B05D07B681B69012B01D001234A
:101E0C00C0E13D4B1B6823F0F8027B685B69DB008B
:101E1C00394913430B603AE07B681B69002B20D0D7
:101E2C00364B01221A60FEF717FE386108E0FEF708
:101E3C0013FE02463B69D31A022B01D90323A1E1FD
:101E4C002D4B1B6803F00203002BF0D02A4B1B68B0
:101E5C0023F0F8027B685B69DB00274913430B60B6
:101E6C0015E0264B00221A60FEF7F6FD386108E0FB
:101E7C00FEF7F2FD02463B69D31A022B01D903236C
:101E8C0080E11D4B1B6803F00203002BF0D17B6833
:101E9C001B6803F00803002B3AD07B689B69002B6E
:101EAC0019D0174B01221A60FEF7D6FD386108E0F5
:101EBC00FEF7D2FD02463B69D31A022B01D903234C
:101ECC0060E10D4B5B6A03F00203002BF0D00120A4
:101EDC0000F0D8FA1CE00A4B00221A60FEF7BCFD99
:101EEC0038610FE0FEF7B8FD02463B69D31A022BAE
:101EFC0008D9032346E100BF001002400000424213
:101F0C0080044242924B5B6A03F00203002BE9D13E
:101F1C007B681B6803F00403002B00F0A6800023F1
:101F2C00FB758B4BDB6903F08053002B0DD1884B79
:101F3C00DB69874A43F08053D361854BDB6903F03F
:101F4C008053BB60BB680123FB75824B1B6803F499
:101F5C008073002B18D17F4B1B687E4A43F480732F
:101F6C001360FEF779FD386108E0FEF775FD024657
:101F7C003B69D31A642B01D9032303E1754B1B680E
:101F8C0003F48073002BF0D07B68DB68012B06D147
:101F9C006F4B1B6A6E4A43F0010313622DE07B68A2
:101FAC00DB68002B0CD16A4B1B6A694A23F00103D6
:101FBC001362674B1B6A664A23F0040313621CE02E
:101FCC007B68DB68052B0CD1614B1B6A604A43F0C4
:101FDC00040313625E4B1B6A5D4A43F001031362F8
:101FEC000BE05B4B1B6A5A4A23F001031362584BFC
:101FFC001B6A574A23F0040313627B68DB68002BCF
:10200C0015D0FEF729FD38610AE0FEF725FD0246E2
:10201C003B69D31A41F28832934201D90323B1E0D0
:10202C004B4B1B6A03F00203002BEED014E0FEF7BF
:10203C0013FD38610AE0FEF70FFD02463B69D31A27
:10204C0041F28832934201D903239BE0404B1B6A37
:10205C0003F00203002BEED1FB7D012B05D13C4B91
:10206C00DB693B4A23F08053D3617B68DB69002B2F
:10207C0000F08780364B5B6803F00C03082B61D0B3
:10208C007B68DB69022B46D1334B00221A60FEF7CA
:10209C00E3FC386108E0FEF7DFFC02463B69D31A2B
:1020AC00022B01D903236DE0294B1B6803F000734D
:1020BC00002BF0D17B681B6AB3F5803F08D1244B11
:1020CC005B6823F400327B689B68214913434B60A7
:1020DC001F4B5B6823F474127B68196A7B685B6A1C
:1020EC000B431B4913434B601B4B01221A60FEF739
:1020FC00B3FC386108E0FEF7AFFC02463B69D31A2B
:10210C00022B01D903233DE0114B1B6803F0007334
:10211C00002BF0D035E0104B00221A60FEF79CFC2F
:10212C00386108E0FEF798FC02463B69D31A022B93
:10213C0001D9032326E0064B1B6803F00073002B28
:10214C00F0D11EE07B68DB69012B07D1012319E07C
:10215C000010024000700040600042420B4B5B6874
:10216C00FB60FB6803F480327B681B6A9A4206D1E1
:10217C00FB6803F470127B685B6A9A4201D00123FE
:10218C0000E0002318461837BD4680BD0010024001
:10219C0080B584B000AF786039607B68002B01D1CA
:1021AC000123D0E06A4B1B6803F007033A689A429C
:1021BC0010D9674B1B6823F0070265493B68134332
:1021CC000B60634B1B6803F007033A689A4201D01B
:1021DC000123B8E07B681B6803F00203002B20D0BE
:1021EC007B681B6803F00403002B05D0594B5B681C
:1021FC00584A43F4E06353607B681B6803F00803A0
:10220C00002B05D0534B5B68524A43F46053536028
:10221C00504B5B6823F0F0027B689B684D4913437D
:10222C004B607B681B6803F00103002B40D07B687C
:10223C005B68012B07D1474B1B6803F40033002B61
:10224C0015D101237FE07B685B68022B07D1414BE2
:10225C001B6803F00073002B09D1012373E03D4B85
:10226C001B6803F00203002B01D101236BE0394BF7
:10227C005B6823F003027B685B68364913434B6051
:10228C00FEF7EAFBF8600AE0FEF7E6FB0246FB68A5
:10229C00D31A41F28832934201D9032353E02D4BD8
:1022AC005B6803F00C027B685B689B009A42EBD185
:1022BC00274B1B6803F007033A689A4210D2244B51
:1022CC001B6823F0070222493B6813430B60204B29
:1022DC001B6803F007033A689A4201D0012332E0ED
:1022EC007B681B6803F00403002B08D0194B5B6858
:1022FC0023F4E0627B68DB68164913434B607B6810
:10230C001B6803F00803002B09D0124B5B6823F405
:10231C0060527B681B69DB000E4913434B6000F075
:10232C0021F802460B4B5B681B0903F00F030A49AB
:10233C00CB5C22FA03F3094A1360094B1B6818465D
:10234C00FEF748FB002318461037BD4680BD00BF82
:10235C000020024000100240E83800080000002075
:10236C000400002090B48AB000AF294B3C1D0FCB69
:10237C0084E80F0040F201233B800023FB61002323
:10238C00BB6100237B6200237B6100233B62214BFA
:10239C005B68FB61FB6903F00C03042B02D0082B78
:1023AC0003D02BE01C4B3B622BE0FB699B0C03F036
:1023BC000F0328333B4413F8243C7B61FB6903F483
:1023CC008033002B12D0134B5B685B0C03F00103C2
:1023DC0028333B4413F8283CBB617B690E4A03FB52
:1023EC0002F2BB69B2FBF3F37B6204E07B690B4A3C
:1023FC0002FB03F37B627B6A3B6202E0064B3B62AF
:10240C0000BF3B6A18462837BD4690BC704700BFDA
:10241C00D83800080010024000127A0000093D0074
:10242C0080B400AF024B1B681846BD4680BC704799
:10243C000000002080B500AFFFF7F2FF0246054B0D
:10244C005B681B0A03F007030349CB5C22FA03F316
:10245C00184680BD00100240F838000880B500AF67
:10246C00FFF7DEFF0246054B5B68DB0A03F0070350
:10247C000349CB5C22FA03F3184680BD00100240DE
:10248C00F838000880B485B000AF78600A4B1B6840
:10249C000A4AA2FB03235B0A7A6802FB03F3FB6084
:1024AC0000BFFB685A1EFA60002BF9D100BF00BFB9
:1024BC001437BD4680BC704700000020D34D62101D
:1024CC0080B586B000AF786000233B610023FB60D1
:1024DC007B681B6803F00103002B7DD00023FB7588
:1024EC004F4BDB6903F08053002B0DD14C4BDB6958
:1024FC004B4A43F08053D361494BDB6903F0805363
:10250C00BB60BB680123FB75464B1B6803F48073EF
:10251C00002B18D1434B1B68424A43F48073136061
:10252C00FEF79AFA386108E0FEF796FA02463B6924
:10253C00D31A642B01D903236DE03A4B1B6803F4C7
:10254C008073002BF0D0364B1B6A03F44073FB6096
:10255C00FB68002B2ED07B685B6803F44073FA6831
:10256C009A4227D02E4B1B6A23F44073FB602E4BF0
:10257C0001221A602C4B00221A60294AFB68136254
:10258C00FB6803F00103002B14D0FEF765FA3861E9
:10259C000AE0FEF761FA02463B69D31A41F288322F
:1025AC00934201D9032336E01D4B1B6A03F002034F
:1025BC00002BEED01A4B1B6A23F440727B685B68CD
:1025CC00174913430B62FB7D012B05D1144BDB69BF
:1025DC00134A23F08053D3617B681B6803F002031A
:1025EC00002B08D00E4B5B6823F440427B689B6841
:1025FC000B4913434B607B681B6803F01003002BE3
:10260C0008D0074B5B6823F480027B68DB680449C5
:10261C0013434B60002318461837BD4680BD00BFDE
:10262C0000100240007000404004424280B582B06D
:10263C0000AF78607B68002B01D1012341E07B68FF
:10264C0093F83D30DBB2002B06D17B68002283F877
:10265C003C207868FEF7AAF87B68022283F83D20BC
:10266C007B681A687B6804331946104600F03CF905
:10267C007B68012283F846207B68012283F83E2088
:10268C007B68012283F83F207B68012283F840207D
:10269C007B68012283F841207B68012283F8422069
:1026AC007B68012283F843207B68012283F8442055
:1026BC007B68012283F845207B68012283F83D204A
:1026CC00002318460837BD4680BD000080B485B095
:1026DC0000AF78607B6893F83D30DBB2012B01D002
:1026EC00012332E07B68022283F83D207B681B6863
:1026FC00184A93420ED07B681B68B3F1804F09D007
:10270C007B681B68144A934204D07B681B68134A8D
:10271C00934211D17B681B689B6803F00703FB6035
:10272C00FB68062B10D07B681B681A687B681B68DB
:10273C0042F001021A6007E07B681B681A687B682C
:10274C001B6842F001021A60002318461437BD467C
:10275C0080BC7047002C0140000400400008004081
:10276C0080B584B000AF786039607B6893F83C30FA
:10277C00012B01D10223B3E07B68012283F83C20BA
:10278C007B68022283F83D207B681B689B68FB609A
:10279C00FB6823F07703FB60FB6823F47F43FB604B
:1027AC007B681B68FA689A603B681B68B3F5005F2E
:1027BC003ED0B3F5005F00F28780B3F5805F00F088
:1027CC008580B3F5805F7FD8702B1AD0702B7BD8A7
:1027DC00602B50D0602B77D8502B3CD0502B73D81B
:1027EC00402B58D0402B6FD8302B64D0302B6BD86B
:1027FC00202B60D0202B67D8002B5CD0102B5AD00C
:10280C0062E07B6818683B6899683B685A683B686B
:10281C00DB6800F042F97B681B689B68FB60FB6817
:10282C0043F07703FB607B681B68FA689A604EE0A4
:10283C007B6818683B6899683B685A683B68DB683A
:10284C0000F02BF97B681B689A687B681B6842F464
:10285C0080429A603BE07B6818683B6859683B682B
:10286C00DB681A4600F0A2F87B681B6850211846FA
:10287C0000F0F9F82BE07B6818683B6859683B68F6
:10288C00DB681A4600F0C0F87B681B6860211846AC
:10289C0000F0E9F81BE07B6818683B6859683B68F6
:1028AC00DB681A4600F082F87B681B6840211846EA
:1028BC0000F0D9F80BE07B681A683B681B68194676
:1028CC00104600F0D0F802E000BF00E000BF7B68CB
:1028DC00012283F83D207B68002283F83C200023F2
:1028EC0018461037BD4680BD80B485B000AF786007
:1028FC0039607B681B68FB607B68294A93420BD06C
:10290C007B68B3F1804F07D07B68264A934203D093
:10291C007B68254A934208D1FB6823F07003FB6067
:10292C003B685B68FA681343FB607B681C4A934204
:10293C000BD07B68B3F1804F07D07B68194A934268
:10294C0003D07B68184A934208D1FB6823F4407388
:10295C00FB603B68DB68FA681343FB60FB6823F0A1
:10296C0080023B685B691343FB607B68FA681A6002
:10297C003B689A687B68DA623B681A687B689A6283
:10298C007B68074A934203D13B681A697B681A63D8
:10299C007B6801225A6100BF1437BD4680BC70476A
:1029AC00002C0140000400400008004080B487B0B7
:1029BC0000AFF860B9607A60FB681B6A7B61FB68EA
:1029CC001B6A23F00102FB681A62FB689B693B617E
:1029DC003B6923F0F0033B617B681B013A691343AD
:1029EC003B617B6923F00A037B617A69BB68134303
:1029FC007B61FB683A699A61FB687A691A6200BF6D
:102A0C001C37BD4680BC704780B487B000AFF860FF
:102A1C00B9607A60FB681B6A23F01002FB681A62CB
:102A2C00FB689B697B61FB681B6A3B617B6923F4D8
:102A3C0070437B617B681B037A6913437B613B6941
:102A4C0023F0A0033B61BB681B013A6913433B6154
:102A5C00FB687A699A61FB683A691A6200BF1C3795
:102A6C00BD4680BC704780B485B000AF78603960DB
:102A7C007B689B68FB60FB6823F07003FB603A6823
:102A8C00FB68134343F00703FB607B68FA689A60AA
:102A9C0000BF1437BD4680BC704780B487B000AF10
:102AAC00F860B9607A603B60FB689B687B617B690E
:102ABC0023F47F437B613B681A027B681A43BB6833
:102ACC0013437A6913437B61FB687A699A6000BF90
:102ADC001C37BD4680BC704780B485B000AF7860B1
:102AEC0039607B6893F83C30012B01D1022346E01E
:102AFC007B68012283F83C207B68022283F83D200E
:102B0C007B681B685B68FB607B681B689B68BB60B1
:102B1C00FB6823F07003FB603B681B68FA68134387
:102B2C00FB607B681B68FA685A607B681B68164AF6
:102B3C0093420ED07B681B68B3F1804F09D07B6841
:102B4C001B68124A934204D07B681B68104A93425C
:102B5C000CD1BB6823F08003BB603B685B68BA6830
:102B6C001343BB607B681B68BA689A607B68012260
:102B7C0083F83D207B68002283F83C200023184614
:102B8C001437BD4680BC7047002C01400004004047
:102B9C000008004080B582B000AF78607B68002BE5
:102BAC0001D101233FE07B6893F83D30DBB2002B71
:102BBC0006D17B68002283F83C207868FDF714FE70
:102BCC007B68242283F83D207B681B68DA687B686D
:102BDC001B6822F40052DA60786800F005F97B6813
:102BEC001B681A697B681B6822F490421A617B6827
:102BFC001B685A697B681B6822F02A025A617B6841
:102C0C001B68DA687B681B6842F40052DA607B68E8
:102C1C0000221A647B68202283F83D207B682022E6
:102C2C0083F83E20002318460837BD4680BD80B58A
:102C3C008AB002AFF860B9603B601346FB8000239A
:102C4C007B61FB6893F83D30DBB2202B7CD1BB68F9
:102C5C00002B02D0FB88002B01D1012375E0FB680F
:102C6C0093F83C30012B01D102236EE0FB6801226A
:102C7C0083F83C20FB6800221A64FB68212283F84D
:102C8C003D20FDF7E9FE7861FB68FA889A84FB68C1
:102C9C00FA88DA84FB689B68B3F5805F08D1FB681F
:102CAC001B69002B04D10023FB61BB68BB6103E0F3
:102CBC00BB68FB610023BB61FB68002283F83C20EE
:102CCC002AE03B6800937B6900228021F86800F0C1
:102CDC0040F80346002B01D0032336E0FB69002BA0
:102CEC000BD1BB691B881A46FB681B68C2F3080230
:102CFC005A60BB690233BB6107E0FB691A78FB6859
:102D0C001B685A60FB690133FB61FB68DB8C9BB26F
:102D1C00013B9AB2FB68DA84FB68DB8C9BB2002B1C
:102D2C00CFD13B6800937B6900224021F86800F00A
:102D3C0010F80346002B01D0032306E0FB68202289
:102D4C0083F83D20002300E0022318462037BD46BF
:102D5C0080BD80B584B000AFF860B9603B601346AD
:102D6C00FB712CE0BB69B3F1FF3F28D0BB69002B92
:102D7C0007D0FDF771FE02463B68D31ABA699A4236
:102D8C001DD2FB681B68DA68FB681B6822F4D072E2
:102D9C00DA60FB681B685A69FB681B6822F0010249
:102DAC005A61FB68202283F83D20FB68202283F8BF
:102DBC003E20FB68002283F83C2003230FE0FB68D5
:102DCC001B681A68BB681340BA689A420CBF01238F
:102DDC000023DBB21A46FB799A42C3D00023184673
:102DEC001037BD4680BD000080B584B000AF786060
:102DFC007B681B681B6923F440517B68DA687B682D
:102E0C001B680A431A617B689A687B681B691A43C2
:102E1C007B685B691343BB607B681B68DB6823F4CE
:102E2C00B05323F00C037A681268B9680B43D36073
:102E3C007B681B685B6923F440717B689A697B68CB
:102E4C001B680A435A617B681B682C4A934203D166
:102E5C00FFF704FBF86002E0FFF7ECFAF860FA68A1
:102E6C0013469B0013449A001A447B685B689B00D2
:102E7C00B2FBF3F3224AA2FB03235B091901FA68A4
:102E8C0013469B0013449A001A447B685B689B00B2
:102E9C00B2FBF3F21A4BA3FB02035B09642000FBA9
:102EAC0003F3D31A1B013233154AA2FB03235B092C
:102EBC0003F0F0031944FA6813469B0013449A007C
:102ECC001A447B685B689B00B2FBF3F20C4BA3FBD0
:102EDC0002035B09642000FB03F3D31A1B0132339A
:102EEC00074AA2FB03235B0903F00F027B681B68F4
:102EFC000A449A6000BF1037BD4680BD00380140BF
:102F0C001F85EB51014B1868704700BF0C00002067
:102F1C0070B500260C4D0D4C641BA410A64209D1B3
:102F2C0000F09CFC00260A4D0A4C641BA410A6421F
:102F3C0005D170BD55F8043B98470136EEE755F8BE
:102F4C00043B98470136F2E734390008343900085D
:102F5C00343900083839000803460244934200D142
:102F6C00704703F8011BF9E70EB46FF0004100B590
:102F7C009CB01DAB0290069007910491084809493A
:102F8C0053F8042B0591006802A9019300F068F82E
:102F9C000022029B1A701CB05DF804EB03B0704762
:102FAC000C0000200802FFFF2DE9F0478E688246D6
:102FBC009E420C4690461F4638D88A8912F4906F70
:102FCC0032D0256809690133A5EB010965694B44C9
:102FDC0005EB450505EBD5756D109D4238BF1D46BB
:102FEC00530531D5294600F06FFB064650B90C232A
:102FFC004FF0FF30CAF80030A38943F04003A3819F
:10300C00BDE8F0874A46216900F0CEFAA38923F483
:10301C00906343F08003A38126614E4426603E46B4
:10302C006561A5EB0905A560BE4200D93E46324656
:10303C004146206800F0C6FAA36800209B1BA360E1
:10304C00236833442360DBE72A4600F0B1FB0646D5
:10305C000028E1D15046216900F0CEFAC7E7000004
:10306C002DE9F04F98468B8907461B060D461446F2
:10307C009DB00ED50B6963B9402100F025FB28608B
:10308C00286120B90C233B604FF0FF30D1E0402386
:10309C006B610023099320238DF8293030234FF0E6
:1030AC000109CDF80C80DFF8A4818DF82A30234675
:1030BC009A4613F8012B0AB1252AF9D1BAEB040B65
:1030CC000BD05B46224629463846FFF76DFF013090
:1030DC0000F0AA80099A5A4409929AF80030002B01
:1030EC0000F0A28000234FF0FF32CDE905230AF156
:1030FC00010A049307938DF853301A935446052212
:10310C0014F8011B514800F041FA049AD8B9D006C2
:10311C0044BF20238DF85330110744BF2B238DF867
:10312C0053309AF800302A2B15D0544600204FF01B
:10313C000A0C079A214611F8013B303B092B4ED95A
:10314C00B0B1079214E0A0EB080309FA03F31343A0
:10315C00A2460493D2E7039B191D1B680391002B15
:10316C00BBBF5B4242F0020207930793B8BF0492C5
:10317C0023782E2B0CD163782A2B35D1039B023468
:10318C001A1D1B680392002BB8BF4FF0FF33059339
:10319C00DFF8BCA003225046217800F0F7F940B1CB
:1031AC004023A0EB0A0003FA00F0049B0134034314
:1031BC00049314F8011B062226488DF8281000F001
:1031CC00E5F9002838D0244B1BBB039B073323F0B5
:1031DC00070308330393099B3344099367E70C46B1
:1031EC0001200CFB0232A5E700234FF00A0C194614
:1031FC0001340593204610F8012B303A092A03D9E3
:10320C00002BC5D00591C3E7044601230CFB01211B
:10321C00F0E703AB00932A463846104B04A9AFF3F2
:10322C000080421C0646D6D1AB895B063FF52CAF1D
:10323C0009981DB0BDE8F08F03AB00932A463846C1
:10324C00064B04A900F07CF8EBE700BF003900083E
:10325C00063900080A39000800000000B52F0008E4
:10326C002DE9F047164699468A680B690746934242
:10327C00B8BF1346336091F843200C46DDF820802C
:10328C000AB1013333602368990642BF33680233B5
:10329C003360256815F0060506D104F1190AE368B8
:1032AC0032689B1AAB4228DC94F84320131E226828
:1032BC0018BF012392062DD44946384604F1430227
:1032CC00C047013020D02368E56803F00603042BC7
:1032DC0018BF002532684FF00006A36808BFAD1A6E
:1032EC00226908BF25EAE5759342C4BF9B1AED1805
:1032FC001A34B5421AD1002008E00123524649463F
:10330C003846C047013003D14FF0FF30BDE8F0879D
:10331C000135C4E73020E11881F843005A1C94F8B9
:10332C0045102244023382F84310C5E7012322469C
:10333C0049463846C0470130E6D00136D9E700008F
:10334C002DE9FF470F7E9146782F80460C469A4612
:10335C000C9D01F1430207D8622F0AD8002F00F010
:10336C00D980582F00F0A48004F1420584F84270F3
:10337C003AE0A7F16303152BF6D801A151F823F01D
:10338C00E5330008F933000875330008753300087D
:10339C007533000875330008F933000875330008DD
:1033AC0075330008753300087533000807350008BD
:1033BC0029340008E9340008753300087533000817
:1033CC0029350008753300082934000875330008C6
:1033DC0075330008F13400082B681A1D1B682A602D
:1033EC0004F1420584F842300123A4E020682968E6
:1033FC00060601F104030AD50E682B60002E03DAD1
:10340C002D23764284F843300A235E4819E00E6877
:10341C0010F0400F2B6018BF36B2EFE72B68206816
:10342C00191D2960010601D51E6802E04606FBD570
:10343C001E886F2F0CBF08230A235248002184F8E2
:10344C0043106568002DA8BF2168A560A4BF21F0BA
:10345C00040121600EB9002D4DD01546B6FBF3F1D9
:10346C0003FB1167C75D05F8017D3746BB420E466D
:10347C00F4D9082B0BD12368DE0708D523696168C2
:10348C009942DEBF302305F8013C05F1FF35521B94
:10349C0022614B4621464046CDF800A003AAFFF717
:1034AC00DFFE01304CD14FF0FF3004B0BDE8F087A7
:1034BC00344881F845702968236851F8046B2960F9
:1034CC001D0614D5DF0744BF43F0200323601EB94B
:1034DC00236823F0200323601023AFE7236843F015
:1034EC00200323607823284884F84530E3E7590605
:1034FC0048BFB6B2E6E71546BBE72B682668181D31
:10350C006169286035061B6801D5196002E07006F8
:10351C00FBD51980002315462361BAE72B680021DF
:10352C001A1D2A601D686268284600F02FF808B141
:10353C00401B606063682361002384F84330A8E774
:10354C002A46494640462369D0470130ABD0236810
:10355C009B0713D4E068039B9842B8BF1846A4E7B6
:10356C000123324649464046D04701309BD00135B5
:10357C00E36803995B1AAB42F2DCEBE7002504F13C
:10358C001906F5E71139000822390008034610B571
:10359C00C9B202449342184601D1002003E00478DA
:1035AC0001338C42F6D110BD0A44914200F1FF3335
:1035BC0000D1704710B511F8014B914203F8014F3F
:1035CC00F9D110BD884210B501EB020402D9844236
:1035DC00234607D8431EA14208D011F8012B03F84B
:1035EC00012FF8E7014602448A4200D110BD13F8BE
:1035FC00014D02F8014DF7E738B50546002940D0DA
:10360C0051F8043C0C1F002BB8BFE41800F010F963
:10361C001C4A136833B9636014602846BDE838400F
:10362C0000F00CB9A34208D9206821188B4201BFC5
:10363C0019685B6809182160EDE71A465B680BB1E5
:10364C00A342FAD911685018A0420BD1206801444A
:10365C00501883421160E0D118685B680144116016
:10366C005360DAE702D90C232B60D6E720682118C7
:10367C008B4201BF19685B68091821606360546054
:10368C00CBE738BD4444002070B50E4E0C46316873
:10369C00054611B900F0BCF830602146284600F010
:1036AC00B7F8431C0AD0C41C24F00304A04207D072
:1036BC00211A284600F0ACF8013001D14FF0FF344C
:1036CC00204670BD484400202DE9F041CD1C25F06A
:1036DC00030508350C2D38BF0C25002D074601DBE2
:1036EC00A94205D90C2300263B603046BDE8F08189
:1036FC002E4E00F09DF833681C4634BB29463846E4
:10370C00FFF7C2FF431C04464DD134682646002EF9
:10371C0040D123683146384604EB030800F078F8B2
:10372C0080453AD1216803356D1A25F0030508351B
:10373C000C2D38BF0C2538462946FFF7A5FF013064
:10374C002BD023682B4423600EE02268521B1ED41E
:10375C000B2A16D96119A342256018BF59606368FA
:10376C0008BF316062514B60384604F10B0600F023
:10377C0065F826F00706231DF21AB6D09B1BA35042
:10378C00B3E76268A3420CBF32605A60ECE7234691
:10379C006468B2E734467668B9E70C2338463B6078
:1037AC0000F04CF8A1E72560DEE700BF44440020A0
:1037BC002DE9F041804614460E4621B91146BDE86C
:1037CC00F041FFF781BF2AB9FFF716FF25462846BF
:1037DC00BDE8F08100F038F88442074602D8B4EB1B
:1037EC00500F12D821464046FFF76EFF05460028C1
:1037FC00EDD0BC422246314628BF3A46FFF7D4FEF4
:10380C0031464046FFF7F8FEE1E73546DFE70000BA
:10381C0038B50023054D044608462B60FDF762F8C9
:10382C00431C02D12B6803B1236038BD4C440020EB
:10383C00014800F011B800BF50440020014800F0CE
:10384C000CB800BF5044002051F8043C181F002B4A
:10385C00BCBF0B58C018704770477047F8B500BF15
:10386C00F8BC08BC9E467047F8B500BFF8BC08BC55
:04387C009E467047AD
:10388000446562756720506F696E7420310A0000CC
:10389000446562756720506F696E7420320A0000BB
:1038A0002534640A200000000A00000050756C7383
:1038B0006F7320646520436C6F636B20546F746179
:1038C0006C3A200025640A00446562756720506FD9
:1038D000696E7420330A0000020304050607080914
:1038E0000A0B0C0D0E0F101000000000000000006D
:1038F0000102030406070809000000000102030496
:10390000232D302B2000686C4C00656667454647C8
:10391000003031323334353637383941424344454B
:1039200046003031323334353637383961626364BA
:0439300065660000C8
:043934003101000855
:043938000D01000875
:10393C000024F40010000000010000001000002022
:10394C00000000000000000000000000000000006B
:10395C00000000000000000000000000000000005B
:10396C00000000000000000000000000000000004B
:10397C00000000000000000000000000000000003B
:10398C00000000000000000000000000000000002B
:10399C00000000000000000000000000000000001B
:04000005080009697D
:00000001FF
